:1000000029C0000044C0000042C0000040C0000001
:10001000ECC5000011C600003AC000000C94A80B0B
:1000200036C0000034C0000055C600002CC60000D9
:100030002EC000002CC000002AC0000028C0000014
:100040000C94240824C0000022C0000020C000003E
:100050001EC0000011241FBECFE5D8E0DEBFCDBF1B
:1000600011E0A0E6B0E0E8EFF9E202C005900D92E1
:10007000A03DB107D9F716E0A0EDB1E001C01D9297
:10008000A335B107E1F70E94A4130C94FA14B8CF7A
:10009000EF92FF920F931F937B018C0120E030E0E1
:1000A00040E05FE4B6D288237CF0C801B70120E0CD
:1000B00030E040E05FE460D1D9D29B01AC01205038
:1000C00030404040504805C0C801B701CFD29B0125
:1000D000AC01B901CA011F910F91FF90EF900895F3
:1000E000A0E0B0E0E6E7F0E00C943214DC012B0174
:1000F000FA019C91923008F439C1EB018881823079
:1001000008F433C1943069F4843009F02FC111969A
:100110009C9111978981981709F428C1A0EAB0E051
:1001200025C1843009F421C18230A9F4923009F04C
:100130001DC19A01AD0188E0EA010990AE01E90113
:1001400009929E018150C1F7E201898111969C912B
:100150008923818308C1923009F407C112962D903A
:100160003C901397EB018A819B811496AD90BD90D2
:10017000CD90DC901797EC80FD800E811F8191015E
:10018000281B390BB90137FF04C066277727621B8C
:10019000730B603271050CF061C0121613066CF51A
:1001A00037014801062E04C096948794779467948B
:1001B0000A94D2F721E030E040E050E004C0220F82
:1001C000331F441F551F6A95D2F7215030404040DD
:1001D00050402E213F214023512321153105410557
:1001E000510521F021E030E040E050E079018A0142
:1001F000E628F728082919293CC0232BD1F1260E1F
:10020000371E35014601062E04C0969487947794D4
:1002100067940A94D2F721E030E040E050E004C057
:10022000220F331F441F551F6A95D2F721503040CB
:10023000404050402A213B214C215D2121153105B0
:100240004105510521F021E030E040E050E0590146
:100250006A01A628B728C828D9280BC0821593059B
:100260002CF01C01AA24BB24650103C0EE24FF244A
:10027000870111969C91D20111968C91981709F4DF
:1002800045C0992339F0A80197012A193B094C0967
:100290005D0906C0A60195012E193F09400B510BBF
:1002A00057FD08C01182338222822483358346831E
:1002B00057831DC081E0818333822282882799275A
:1002C000DC01821B930BA40BB50B84839583A6835F
:1002D000B7830DC0220F331F441F551F248335835E
:1002E00046835783828193810197938382832481FC
:1002F000358146815781DA01C9010197A109B10908
:100300008F5F9F4FAF4FBF4328F30BC09183338262
:100310002282EA0CFB1C0C1D1D1DE482F582068363
:10032000178383E08083248135814681578157FF7D
:100330001AC0C901AA2797FDA095BA2F81709070A5
:10034000A070B0705695479537952795822B932BC3
:10035000A42BB52B84839583A683B7838281938155
:10036000019693838283DF0101C0D201CD01CDB715
:10037000DEB7E2E10C944E14A0E2B0E0E2ECF1E072
:100380000C943E1469837A838B839C832D833E83F4
:100390004F835887E9E0EE2EF12CEC0EFD1ECE01C6
:1003A0000196B70151D38E010F5E1F4FCE01059606
:1003B000B8014AD38A8991E089278A8BC701B8019D
:1003C000AE01475E5F4F8CDE6AD2A096E6E00C94E9
:1003D0005A14A0E2B0E0EFEEF1E00C943E14698311
:1003E0007A838B839C832D833E834F835887F9E0E8
:1003F000EF2EF12CEC0EFD1ECE010196B70124D399
:100400008E010F5E1F4FCE010596B8011DD3C701A7
:10041000B801AE01475E5F4F63DE41D2A096E6E0D1
:100420000C945A14A0E2B0E0E8E1F2E00C9432142B
:1004300069837A838B839C832D833E834F83588784
:10044000CE010196BE01675F7F4FFED2CE010596B9
:10045000BE016F5E7F4FF8D29985923088F089890E
:100460008230C8F0943019F4823051F404C08430E2
:1004700029F4923081F480EA90E0C6C0923049F4C9
:1004800020E09A858A89981321E02A87CE0109966F
:10049000BBC0823049F420E09A858A89981321E014
:1004A0002A8BCE014196B0C02D843E844F8458885B
:1004B0006D887E888F88988CEE24FF248701AA247B
:1004C000BB24650140E050E060E070E0E0E0F0E077
:1004D000C10181709070892BE9F0E60CF71C081DB2
:1004E000191D9A01AB012A0D3B1D4C1D5D1D80E0BD
:1004F00090E0A0E0B0E0E614F7040805190520F448
:1005000081E090E0A0E0B0E0BA01A901480F591FD6
:100510006A1F7B1FAA0CBB1CCC1CDD1C97FE08C0ED
:1005200081E090E0A0E0B0E0A82AB92ACA2ADB2A3C
:100530003196E032F10549F0660C771C881C991C55
:100540005694479437942794C3CFFA85EA892B8928
:100550003C898B859C85280F391F2E5F3F4F17C024
:10056000CA0181709070892B61F016950795F794F8
:10057000E79480E090E0A0E0B0E8E82AF92A0A2BAE
:100580001B2B76956795579547952F5F3F4F77FDC6
:10059000E7CF0CC0440F551F661F771F17FD416042
:1005A000EE0CFF1C001F111F21503040403090E026
:1005B000590790E0690790E4790760F32B8F3C8F2F
:1005C000DB01CA018F779070A070B0708034910504
:1005D000A105B10561F447FD0AC0E114F10401056C
:1005E000110529F0405C5F4F6F4F7F4F40781A8EA6
:1005F000FE1711F081E08A8F4D8F5E8F6F8F78A389
:1006000083E0898FCE0149964AD1A096E2E10C940D
:100610004E14A8E1B0E0EFE0F3E00C943E146983DF
:100620007A838B839C832D833E834F83588789E015
:10063000E82EF12CEC0EFD1ECE010196B70104D27E
:100640008E010F5E1F4FCE010596B801FDD1898541
:10065000823038F08989823020F0C701B8016CD22D
:1006600001C08FEF6896E6E00C945A14ACE0B0E05D
:10067000ECE3F3E00C94421469837A838B839C83CC
:10068000CE010196BE016B5F7F4FDED18D8182303E
:1006900061F1823050F1843021F48E81882351F150
:1006A0002EC02F81388537FD20C06E812F31310556
:1006B0001CF06623F9F023C08EE190E0821B930BBF
:1006C00029853A854B855C8504C0569547953795B5
:1006D00027958A95D2F76623B1F0509540953095CD
:1006E00021953F4F4F4F5F4F0EC020E030E040E07C
:1006F00050E009C02FEF3FEF4FEF5FE704C020E06D
:1007000030E040E050E8B901CA012C96E2E00C94D8
:100710005E14A8E0B0E0EFE8F3E00C943A147B013B
:100720008C01611571058105910519F482E08983B9
:100730005FC083E089838EE1C82ED12CDC82CB821E
:10074000ED82FE820F831887C801B70159D0FC01E2
:100750003197F7FF3BC0222733272E1B3F0B570152
:100760006801022E04C0D694C794B794A7940A9443
:10077000D2F740E050E060E070E081E090E0A0E07F
:10078000B0E004C0880F991FAA1FBB1F2A95D2F79B
:100790000197A109B1098E219F21A023B1230097C0
:1007A000A105B10521F041E050E060E070E04A2988
:1007B0005B296C297D294D835E836F8378878EE169
:1007C00090E08E1B9F0B9C838B8312C0309781F02F
:1007D0000E2E04C0EE0CFF1C001F111F0A94D2F74E
:1007E000ED82FE820F831887CE1ADF0ADC82CB826D
:1007F0001A82CE01019653D02896EAE00C94561442
:10080000EF92FF920F931F937B018C0180E0E8161B
:1008100080E0F80681E0080780E0180788F48FEF91
:10082000E816F1040105110531F028F088E090E0A8
:10083000A0E0B0E017C080E090E0A0E0B0E012C01F
:1008400080E0E81680E0F80680E0080781E01807FD
:1008500028F088E190E0A0E0B0E004C080E190E002
:10086000A0E0B0E020E230E040E050E0281B390B8F
:100870004A0B5B0B04C016950795F794E7948A958D
:10088000D2F7F701E855FF4F8081281B3109410954
:100890005109C9011F910F91FF90EF900895DF92C8
:1008A000EF92FF920F931F93FC01E480F580068185
:1008B0001781D1808081823048F480E090E0A0E10F
:1008C000B0E0E82AF92A0A2B1B2BA5C0843009F4D2
:1008D0009FC0823021F4EE24FF24870105C0E1147B
:1008E000F1040105110519F4E0E0F0E096C0628121
:1008F00073819FEF623879070CF05BC022E83FEF0D
:10090000261B370B2A3131052CF020E030E040E087
:1009100050E02AC0B801A701022E04C07695679561
:10092000579547950A94D2F781E090E0A0E0B0E0B7
:1009300004C0880F991FAA1FBB1F2A95D2F70197E1
:10094000A109B1098E219F21A023B1230097A10500
:10095000B10521F081E090E0A0E0B0E09A01AB01A8
:10096000282B392B4A2B5B2BDA01C9018F7790702A
:10097000A070B07080349105A105B10539F427FF4E
:1009800009C0205C3F4F4F4F5F4F04C0215C3F4F79
:100990004F4F5F4FE0E0F0E02030A0E03A07A0E0EA
:1009A0004A07A0E45A0710F0E1E0F0E079018A017B
:1009B00027C06038710564F5FB01E158FF4FD8018D
:1009C000C7018F779070A070B07080349105A10539
:1009D000B10539F4E7FE0DC080E490E0A0E0B0E09E
:1009E00004C08FE390E0A0E0B0E0E80EF91E0A1F1B
:1009F0001B1F17FF05C016950795F794E7943196CE
:100A000087E016950795F794E7948A95D1F705C086
:100A1000EE24FF248701EFEFF0E06E2F6795662745
:100A20006795902F9F77D794DD24D7948E2F869546
:100A3000492F462B582F5D29B701CA011F910F91ED
:100A4000FF90EF90DF900895FC01DB014081518120
:100A50002281622F6F7770E0221F2227221F93814D
:100A6000892F880F822B282F30E0991F9927991FF3
:100A700011969C93119721153105A9F54115510542
:100A80006105710511F482E037C082E89FEF13968B
:100A90009C938E9312979A01AB0167E0220F331F4C
:100AA000441F551F6A95D1F783E08C930DC0220F28
:100AB000331F441F551F12968D919C9113970197D8
:100AC00013969C938E931297203080E0380780E035
:100AD000480780E4580758F314962D933D934D939F
:100AE0005C93179708952F3F310579F4411551050F
:100AF0006105710519F484E08C93089564FF03C0C7
:100B000081E08C9312C01C9210C02F573040139676
:100B10003C932E93129783E08C9387E0440F551FEC
:100B2000661F771F8A95D1F7706414964D935D9375
:100B30006D937C93179708951F93DC01FB019C91A3
:100B4000923008F447C08081823008F443C094306A
:100B500051F411961C91843099F58181682F70E0D1
:100B6000611B71093FC0843021F0923031F4823032
:100B7000B9F18181882389F12DC011961C911197BB
:100B80008230F1F081811817D9F412962D913C91A1
:100B90001397828193818217930794F0281739075E
:100BA000BCF014968D919D910D90BC91A02D248147
:100BB000358146815781281739074A075B0718F4A2
:100BC000112341F00AC082179307A407B50740F428
:100BD000112319F061E070E005C06FEF7FEF02C0F4
:100BE00060E070E0CB011F9108951F920F920FB645
:100BF0000F9211242F933F934F935F936F937F93A3
:100C00008F939F93AF93BF93EF93FF93E0914B0626
:100C1000F0914C060995FF91EF91BF91AF919F9193
:100C20008F917F916F915F914F913F912F910F9095
:100C30000FBE0F901F9018951F920F920FB60F9234
:100C400011242F933F934F935F936F937F938F93D1
:100C50009F93AF93BF93EF93FF93E0914B06F09177
:100C60004C060995FF91EF91BF91AF919F918F91A4
:100C70007F916F915F914F913F912F910F900FBE98
:100C80000F901F9018951F920F920FB60F9211247C
:100C90002F933F934F935F936F937F938F939F9384
:100CA000AF93BF93EF93FF93E0914D06F0914E0603
:100CB0000995FF91EF91BF91AF919F918F917F9196
:100CC0006F915F914F913F912F910F900FBE0F90B9
:100CD0001F9018951F920F920FB60F9211242F9309
:100CE0003F934F935F936F937F938F939F93AF93B4
:100CF000BF93EF93FF93E0914D06F0914E06099557
:100D0000FF91EF91BF91AF919F918F917F916F91E3
:100D10005F914F913F912F910F900FBE0F901F90B9
:100D200018958FB780688FBF0895382F883008F0E6
:100D30007AC0613029F1613038F0623009F43CC08A
:100D4000633009F070C053C0413059F42AB381E0D8
:100D500090E002C0880F991F3A95E2F7282B2ABB32
:100D600060C0442309F05FC02AB381E090E002C074
:100D7000880F991F3A95E2F7809582238ABB51C06C
:100D8000413059F427B381E090E002C0880F991FE9
:100D90003A95E2F7282B27BB44C0442309F043C00F
:100DA00027B381E090E002C0880F991F3A95E2F7DF
:100DB0008095822387BB35C0413059F424B381E04C
:100DC00090E002C0880F991F3A95E2F7282B24BBC8
:100DD00028C0442341F524B381E090E002C0880F8D
:100DE000991F3A95E2F78095822384BB1AC041305F
:100DF00059F421B381E090E002C0880F991F3A9521
:100E0000E2F7282B21BB0DC0442369F421B381E014
:100E100090E002C0880F991F3A95E2F780958223EF
:100E200081BB81E0089580E00895382F883008F074
:100E30007AC0613029F1613038F0623009F43CC089
:100E4000633009F070C053C0413059F42BB381E0D6
:100E500090E002C0880F991F3A95E2F7282B2BBB30
:100E600060C0442309F05FC02BB381E090E002C072
:100E7000880F991F3A95E2F7809582238BBB51C06A
:100E8000413059F428B381E090E002C0880F991FE7
:100E90003A95E2F7282B28BB44C0442309F043C00D
:100EA00028B381E090E002C0880F991F3A95E2F7DD
:100EB0008095822388BB35C0413059F425B381E049
:100EC00090E002C0880F991F3A95E2F7282B25BBC6
:100ED00028C0442341F525B381E090E002C0880F8B
:100EE000991F3A95E2F78095822385BB1AC041305D
:100EF00059F422B381E090E002C0880F991F3A951F
:100F0000E2F7282B22BB0DC0442369F422B381E011
:100F100090E002C0880F991F3A95E2F780958223EE
:100F200082BB81E0089580E00895282FFA0188307F
:100F3000E8F441305105D1F0613049F0613028F0DA
:100F4000623039F0633091F406C089B305C086B3CE
:100F500003C083B301C080B390E002C0959587952C
:100F60002A95E2F78170808381E0089580E00895FA
:100F7000982F853008F047C06130B9F0613030F00B
:100F8000623011F1633009F03EC02DC08BB32FE009
:100F900030E002C0220F331F9A95E2F720952823F4
:100FA0002BBB8BB3842B8BBB2CC088B32FE030E0E2
:100FB00002C0220F331F9A95E2F72095282328BB01
:100FC00088B3842B88BB1DC085B32FE030E002C0FE
:100FD000220F331F9A95E2F72095282325BB85B36E
:100FE000842B85BB0EC082B32FE030E002C0220FFD
:100FF000331F9A95E2F72095282322BB82B3842BD6
:1010000082BB81E0089580E008953E9A3F9886B1C2
:10101000887F86B986B1876086B93D98379A0895EA
:10102000339A089597B1907E97B997B18770892BBD
:1010300087B9369A089524B135B1C90108959093BE
:10104000500680934F0608951F920F920FB60F928D
:1010500011242F933F934F935F936F937F938F93BD
:101060009F93AF93BF93EF93FF93E0914F06F0915F
:1010700050060995FF91EF91BF91AF919F918F918C
:101080007F916F915F914F913F912F910F900FBE84
:101090000F901F9018956F927F929F92AF92BF9280
:1010A000CF92DF92EF92FF920F931F93DF93CF9334
:1010B0000F92CDB7DEB79924EE24FF245E01089489
:1010C000A11CB11C30E2632E3EE4732E22E0C22E3E
:1010D000CE0C8C2D63E040E0A8DE8701000F111FCD
:1010E000000F111F00541E4F84E0D82E8D2D61E09B
:1010F000A5011BDF8981882369F4F801908004C071
:101100008D2D61E0A50111DF89818823C9F3C30119
:101110000197F1F7D3940F5F1F4FF8E0DF1631F717
:101120008C2D63E041E081DE0894E11CF11C84E039
:10113000E816F10459F6892D0F90CF91DF911F9198
:101140000F91FF90EF90DF90CF90BF90AF909F9066
:101150007F906F90089584E061E040E0E6DD85E0F7
:1011600061E040E0E2DD86E061E040E0DEDD87E076
:1011700061E040E0DADD82E063E041E0D6DD83E07B
:1011800063E041E0D2DD84E063E041E0CEDD85E074
:1011900063E041E0CADD84E061E041E046DE85E0F5
:1011A00061E041E042DE86E061E041E03EDE87E072
:1011B00061E041E03ADE82E063E041E036DE83E078
:1011C00063E041E032DE84E063E041E02EDE85E072
:1011D00063E041E02ACE1F93182F81E060E041E0F8
:1011E00024DE1F70110F110F110F83E060E0412FFB
:1011F000BFDE82E060E041E018DE80E49CE9019718
:10120000F1F782E060E040E010DE1F9108951F9347
:10121000182F82958F70DFDF812FDDDF1F910895FA
:10122000AF92BF92CF92DF92EF92FF920F931F93F4
:10123000DF93CF93CDB7DEB72C970FB6F894DEBF10
:101240000FBECDBF6B017C01611571058105910554
:10125000D9F110E05E010894A11CB11CC501810FF9
:10126000911D9C878B87C701B6012AE030E040E0E2
:1012700050E00E941014EB85FC856083C701B60125
:101280002AE030E040E050E00E941014C901DA0189
:101290006C017D011F5FC114D104E104F104F1F67A
:1012A000012F0150E02EFF24E7FCF094EA0CFB1C18
:1012B00008C0F7018081805DAADF01500894E10831
:1012C000F10807FFF6CF02C080E3A1DF2C960FB62E
:1012D000F894DEBF0FBECDBFCF91DF911F910F916C
:1012E000FF90EF90DF90CF90BF90AF9008951F9345
:1012F000CF93DF93EC0110E002C089DF1F5FFE0196
:10130000E10FF11D80818823C1F7DF91CF911F91FB
:1013100008951F93182F81E060E040E086DD1F7084
:10132000110F110F110F83E060E0412F21DE82E0E9
:1013300060E041E07ADD80EA9FE00197F1F782E02A
:1013400060E040E072DD1F9108951F93162F8130F9
:1013500039F4603170F488E0DCDF812F805808C0F8
:10136000823039F4603128F48CE0D3DF812F80544F
:10137000D0DF1F9108950F931F9386E060E041E056
:10138000D4DC85E060E041E0D0DC84E060E041E076
:10139000CCDC83E060E041E0C8DC81E060E041E07B
:1013A000C4DC82E060E041E0C0DC80E69AEE0197B8
:1013B000F1F782E0AEDF82E0ACDF88E2AADF00ED89
:1013C00017E0C8010197F1F780E0A3DF8CE0A1DF0F
:1013D000C8010197F1F780E09CDF81E09ADF80EAA5
:1013E0009FE00197F1F780E094DF86E092DF1F91A4
:1013F0000F91089587E063E040E017CD87E063E058
:1014000041E013CD87E063E041E08FCC80E061E014
:1014100040E00BCD80E061E041E007CD80E061E09D
:1014200041E083CC08950F931F93CF93DF938C01FA
:101430001FD48091D0019091D1019801280F391FBC
:1014400043E0283E340758F48217930740F4EC0138
:10145000CE52DE4F3093D1012093D00102C0C0E0C4
:10146000D0E0C3D5CE01DF91CF911F910F910895A8
:10147000FC019C012D5F3F4F328321838FEF9FEF53
:10148000948383833683258330872783108208954E
:10149000FC01118610860895CF93DF93AC01DB0128
:1014A000EC0129813A81F9018281938113969C9301
:1014B0008E93129789819A8115969C938E93149797
:1014C0000280F381E02D75836483E9017B836A8365
:1014D000FA017283618319965C934E931897808109
:1014E0008F5F8083DF91CF910895CF93DF939C012D
:1014F000EB01488159818FEF4F3F580721F4F901E3
:10150000A781B08510C0D901139604C012960D9022
:10151000BC91A02D1296ED91FC9113978081918141
:101520004817590798F71296ED91FC911397FB8392
:10153000EA83D583C483BD83AC831396DC93CE93B7
:10154000129739872887F90180818F5F8083DF9127
:10155000CF910895CF93DF93DC011296ED91FC912A
:10156000139714968D919C91159795838483149667
:10157000CD91DC911597FB83EA831896ED91FC9150
:101580001997818192818A179B0711F4D283C183B5
:1015900019961C921E921897808181508083DF914A
:1015A000CF910895FC0191E1908322E2229383E39D
:1015B000829362937293129280E88293129282E0F5
:1015C000829383E0829384E0829385E0829386E035
:1015D000829387E0829388E0829389E0829380E11E
:1015E0008293929382E1829383E1829384E1829356
:1015F00085E1829386E1829387E1829388E18293F9
:1016000089E1829380E2829381E28293229383E252
:1016100082934293529386E2829387E2829388E296
:10162000829389E2829380E3829381E3829331976C
:10163000CF0108951BBC8EE08ABD8BE08EBD89B7BB
:10164000806189BFA091BA05B091BB05CD91CDBF96
:10165000DD91DEBFFF91EF91DF91CF91BF91AF910F
:101660009F918F917F916F915F914F913F912F91BA
:101670001F910F91FF90EF90DF90CF90BF90AF90B0
:101680009F908F907F906F905F904F903F902F90A2
:101690001F900F900FBE0F90089581E008950F9254
:1016A0000FB6F8940F921F9211242F923F924F92EF
:1016B0005F926F927F928F929F92AF92BF92CF92E2
:1016C000DF92EF92FF920F931F932F933F934F93CD
:1016D0005F936F937F938F939F93AF93BF93CF93BA
:1016E000DF93EF93FF93A091BA05B091BB050DB6C0
:1016F0000D920EB60D9289D3C1D2A091BA05B091C8
:10170000BB05CD91CDBFDD91DEBFFF91EF91DF91A4
:10171000CF91BF91AF919F918F917F916F915F9189
:101720004F913F912F911F910F91FF90EF90DF907C
:10173000CF90BF90AF909F908F907F906F905F9071
:101740004F903F902F901F900F900FBE0F900895D5
:10175000A6DF18950F920FB6F8940F921F921124DE
:101760002F923F924F925F926F927F928F929F92B1
:10177000AF92BF92CF92DF92EF92FF920F931F939F
:101780002F933F934F935F936F937F938F939F9389
:10179000AF93BF93CF93DF93EF93FF93A091BA05DD
:1017A000B091BB050DB60D920EB60D9267D2A09109
:1017B000BA05B091BB05CD91CDBFDD91DEBFFF91E4
:1017C000EF91DF91CF91BF91AF919F918F917F91D9
:1017D0006F915F914F913F912F911F910F91FF90CA
:1017E000EF90DF90CF90BF90AF909F908F907F90C1
:1017F0006F905F904F903F902F901F900F900FBE73
:101800000F900895CF93DF93EC01842F4C8D4423E8
:10181000A1F18823B1F48C819D8150E00E94DB14FA
:101820008C8D2C813D81280F311D3D832C838A8135
:101830009B812817390708F1888199819D838C83C2
:101840001CC08E819F8150E00E94DB148C8D90E043
:1018500044275527481B590B8E819F81840F951F64
:101860009F838E83288139818217930730F48A8180
:101870009B81840F951F9F838E838A8D8F5F8A8FB4
:10188000DF91CF9108950F931F93CF93DF93EC01D6
:101890000FB6F8940F928C010F5E1F4F0BC0898911
:1018A000882359F0C80175D2882309F06ED28E8D35
:1018B00081508E8F8E8D181694F38FEF8E8F0F9030
:1018C0000FBE0FB6F8940F928E01085F1F4F0BC02A
:1018D0008885882359F0C8015CD2882309F055D245
:1018E0008D8D81508D8F8D8D181694F38FEF8D8F88
:1018F0000F900FBEDF91CF911F910F9108957F92AE
:101900008F929F92AF92BF92CF92DF92EF92FF920F
:101910000F931F93DF93CF9300D000D00F92CDB7DA
:10192000DEB78C01962E872E5D834C83722E91E15B
:10193000C92ED12CC00ED11E20E07E010894E11CDE
:10194000F11C84E0A82EB12CAC0EBD1E01C021E01C
:101950000FB6F8940F92F801828D882309F43BC0EA
:10196000E680F7804081518141155105B1F0848DA9
:101970009701280F311D3783268382819381281791
:10198000390710F057834683F801448D66817781CB
:10199000892D982D50E00E94DB14772069F4F8011E
:1019A000828D8150828F8085882389F0C8010896B6
:1019B000F0D1813061F40AC0F801F782E6828189B2
:1019C000882329F0C601E5D1882309F0C3DE0F90F2
:1019D0000FBE81E03FC08C819D81892B19F40F904F
:1019E0000FBE37C0222311F4C7018AD10F900FBE5A
:1019F0003FD10FB6F8940F92F801858D8F3F09F40F
:101A0000158EF801868D8F3F09F4168E0F900FBE4C
:101A1000C701B50180D18823C9F40FB6F8940F929D
:101A2000F801828D0F900FBE882361F46C817D8157
:101A3000C601C1D2C80127DFD8D2882309F087CFD9
:101A400089DE85CFC8011FDFD0D281CFC8011BDF5F
:101A5000CCD280E00F900F900F900F900F90CF910D
:101A6000DF911F910F91FF90EF90DF90CF90BF908B
:101A7000AF909F908F907F9008957F928F929F92CA
:101A8000AF92BF92CF92DF92EF92FF920F931F938C
:101A9000DF93CF9300D000D00F92CDB7DEB78C018B
:101AA0006B015D834C83722E48E0E42EF12CE80E2E
:101AB000F91E20E05E010894A11CB11C34E0832EC5
:101AC000912C8C0E9D1E01C021E00FB6F8940F9250
:101AD000F801928D838D981790F4C801B601472DB7
:101AE00091DEF8018189882331F0C801419651D1F6
:101AF000813009F42FDE0F900FBE81E041C08C8150
:101B00009D81892B19F40F900FBE39C0222311F447
:101B1000C501F6D00F900FBEABD00FB6F8940F9260
:101B2000F801858D8F3F09F4158EF801868D8F3F62
:101B300009F4168E0F900FBEC501B401ECD08823B6
:101B4000D9F40FB6F8940F92F801928D0F900FBE52
:101B5000F801838D981761F46C817D81C7012BD2C8
:101B6000C80191DE42D2882309F0AECFF3DDACCFBD
:101B7000C80189DE3AD2A8CFC80185DE36D280E01E
:101B80000F900F900F900F900F90CF91DF911F91BA
:101B90000F91FF90EF90DF90CF90BF90AF909F900C
:101BA0008F907F900895AF92BF92CF92DF92EF9285
:101BB000FF920F931F93CF93DF93B82EA62E882307
:101BC00009F43DC08FE190E02EDCEC010097B9F103
:101BD000EB2CFF24CA2CDD24CE9C8001CF9C100D61
:101BE000DE9C100D1124C80101961DDC9C01998317
:101BF0008883009711F1080F191F1B830A831A8E1F
:101C00009D838C830894E108F108EC9CC001ED9C55
:101C1000900DFC9C900D1124280F391F3F832E83BB
:101C2000BB8EAC8E8FEF8D8F8E8FCE01089620DC11
:101C3000CE0141961DDC9E0104C0CE01F3DB20E005
:101C400030E0C901DF91CF911F910F91FF90EF908C
:101C5000DF90CF90BF90AF9008951F93162F60E054
:101C6000A2DFFC01009709F0128FCF011F910895A8
:101C70008091C0058F5F8093C00508958091C00555
:101C8000882351F081E08093BC0508958091C105BF
:101C900081508093C10501C099E0E091C105E99FA1
:101CA000F0011124E853FA4F8081882379F3909151
:101CB000C10589E0989FD0011124A853BA4F11960D
:101CC000ED91FC9112970280F381E02D1296FC9326
:101CD000EE931197CD010396E817F90731F482814D
:101CE000938112969C938E9311971196ED91FC918E
:101CF0001297868197819093BB058093BA050895CA
:101D0000FC018091BD0580838091BE059091BF0547
:101D1000928381830895FC01DB010FB6F8940F9242
:101D20009091BD058081981749F02091BE053091B2
:101D3000BF05818192812817390718F58091BE056A
:101D40009091BF05218132814D915C911197821B49
:101D5000930B84179507A8F48091BE059091BF0559
:101D6000281B390B240F351F2D933C938091BD0503
:101D700080838091BE059091BF059283818380E02E
:101D800001C081E00F900FBE089581E08093BC05F3
:101D900008950F931F93CF93DF93FC010580F68185
:101DA000E02D06811781E8012C96CE01D3DB8091CE
:101DB000C0058823A1F4E8012296CE01CBDBD8012F
:101DC00056969C918091C105891710F49093C10596
:101DD00089E0989FC001112488539A4F02C088E37C
:101DE00096E0BE0159DBE091BA05F091BB0520E019
:101DF000D80156969C918689981708F021E0822F89
:101E0000DF91CF911F910F910895FF920F931F9330
:101E1000CF93DF938091C005882309F08CC0809117
:101E2000BE059091BF0501969093BF058093BE05B6
:101E30008091BE059091BF05892B79F520913406DC
:101E4000309135068091360690913706909335068D
:101E50008093340630933706209336068091BD0573
:101E60008F5F8093BD05E0913406F0913506808147
:101E7000882319F48FEF9FEF0CC0E0913406F091A6
:101E800035060580F681E02D0680F781E02D828100
:101E900093819093A9018093A8012091BE05309170
:101EA000BF058091A8019091A9012817390708F46E
:101EB00047C089E0F82EE0913406F0913506808124
:101EC000882339F48FEF9FEF9093A9018093A801A5
:101ED00037C0E0913406F09135060580F681E02D9B
:101EE000C681D7812A813B818091BE059091BF0533
:101EF0008217930728F43093A9012093A80120C0EA
:101F00008E010E5F1F4FC80125DB8C899D89892BAF
:101F100019F0CE010C961EDB9E898091C1058917B0
:101F200010F49093C1059F9DC001112488539A4FCE
:101F3000B801B2DAC0CF8091C2058F5F8093C2052D
:101F4000DF91CF911F910F91FF900895CF93DF9371
:101F5000EC01E091BA05F091BB05938382838091F7
:101F6000BE059091BF05C817D90760F48091360669
:101F7000909137066091BA057091BB056E5F7F4FF7
:101F8000B4DA16C080913406909135066091BA0596
:101F90007091BB056E5F7F4FA8DA8091A801909188
:101FA000A901C817D90720F4D093A901C093A801AB
:101FB000DF91CF9108950F931F938B016091BA0524
:101FC0007091BB05645F7F4F90DA8091BA05909164
:101FD000BB050296BFDA8091BE059091BF05800FC8
:101FE000911FB4DF1F910F910895CF92DF92FF925E
:101FF0000F931F93DF93CF930F92CDB7DEB70FB63A
:10200000F8940F928091C00581508093C005809113
:10201000C005882309F053C08091C305882309F4C3
:102020004EC0198299E0F92E2AC0E0913D06F09148
:102030003E06C680D780C6010C968CDA86010E5FFC
:102040001F4FC80187DAD60156969C918091C10531
:10205000891710F49093C1059F9DC00111248853E6
:102060009A4FB80119DAE091BA05F091BB05D60193
:1020700056969C918689981710F0B1E0B9838091AB
:102080003806882391F68091C205882339F40BC065
:10209000BCDE8091C20581508093C2058091C2054B
:1020A0008823B1F707C0E981E13021F08091BC05B8
:1020B000813029F41092BC054DDB81E001C080E045
:1020C0000F900FBE0F90CF91DF911F910F91FF9056
:1020D000DF90CF9008950F931F93CF93DF93EC0180
:1020E0000097B1F08091C0058F5F8093C00500918B
:1020F000BE051091BF058091BA059091BB0502966F
:1021000029DACE01800F911F21DF6FDF882309F4C8
:1021100021DBDF91CF911F910F9108950F931F93B2
:102120008091C5058823E1F38091C0058F5F80937E
:10213000C0051091410659DF112391F30FB6F894B1
:102140000F92E0914606F091470606811781C8017B
:10215000029600DA8091C30581508093C305809177
:10216000C50581508093C5050F900FBEF801878982
:10217000908D58D9C80156D9D3CF2F923F924F9204
:102180005F927F928F929F92AF92BF92CF92DF9297
:10219000EF92FF920F931F93CF93DF931C014B019C
:1021A0005A012901702EE60181E290E03CD96C01D0
:1021B000009761F0209719F4C50135D9EC01F601BB
:1021C000D08FC78B209721F4C6012CD98FEFB3C0D5
:1021D000CE0165EA70E0A501F7D30894A108B10823
:1021E000F601C789D08DCA0DDB1DC6014996B40121
:1021F00048E050E0F0D3F60110A2072DF9E0F71502
:1022000008F409E0F601068B42E0A42EB12CAC0CD8
:10221000BD1CC5013DD9C6010C963AD9F601D1863F
:10222000C0868AE090E0801B910995878487D38AD5
:10223000C28ACE01B101A201B5D9F6019183808392
:10224000E114F10419F0F701D182C0820FB6F894BD
:102250000F928091C3058F5F8093C3058091BA056B
:102260009091BB05892B51F5D092BB05C092BA0560
:102270008091C305813089F5C8ECD5E0CE01F8D84E
:102280002996F6E0C232DF07C9F732E2E32E36E0E4
:10229000F32EC701EDD80BE216E0C801E9D888E3B8
:1022A00096E0E6D881E496E0E3D8F0923506E09235
:1022B000340610933706009336060FC08091C4058C
:1022C000882359F4E091BA05F091BB058689781608
:1022D00020F0D092BB05C092BA05F6019689809194
:1022E000C705891710F49093C7058091C6058F5FC5
:1022F0008093C605F60196898091C105891710F46F
:102300009093C105F601868929E0829FC0011124BE
:1023100088539A4FB501C0D80F900FBE8091C40565
:10232000882341F0E091BA05F091BB0586898715B5
:1023300008F410DA81E0DF91CF911F910F91FF90A7
:10234000EF90DF90CF90BF90AF909F908F907F9055
:102350005F904F903F902F900895AF92BF92CF9291
:10236000DF92EF92FF920F938EE890E160E670E0CB
:1023700044E650E020E030E000E0EE24FF24CC24EE
:10238000DD24AA24BB24F9DE813041F4F894809343
:10239000C4051092BF051092BE054CD90F91FF9055
:1023A000EF90DF90CF90BF90AF9008958091BE01E5
:1023B0008823A1F0A89AA99880ED97E08CDEA898D0
:1023C000A99A80ED97E087DEA998AA9A80ED97E018
:1023D00082DEA99AAA981092BE010895A99AA89897
:1023E000AA98089581E060E00E94A50985E690E042
:1023F0000E9477098091BE01882339F081E063E073
:102400000E94A50989E690E006C081E063E00E9491
:10241000A5098FE690E00C94770982E060E00E94C5
:10242000A5098091BF01882341F085E062E041E089
:102430000E94150785E790E00BC08091BD018823BD
:1024400029F485E062E040E00E9415078CE790E007
:102450000C94770982E068E00E94A5098091BD0193
:102460008823C1F083E890E00E94770985E062E06C
:1024700041E00E94150788EB9BE02DDE8091BF01B3
:10248000882329F485E062E040E00E94150710925D
:10249000BD0108958CE890E00E9477096091BA012F
:1024A00070E080E090E00E94100982E990E00C94D6
:1024B000770981E06AE00E94A50985E990E00E9421
:1024C00077096091AE0170E080E090E00E94100911
:1024D00089E990E00E9477098091AE018A3020F46A
:1024E0008BE990E00C947709843620F48EE990E033
:1024F0000C947709089576DFDCDF8FDFABDF88ECA3
:1025000090E0E9DDF8CF1F93182F0E94BB090E94CD
:1025100091068AEB92E10E941F080E9410080E9417
:102520000508812F0E94120880E060E040E00E94D0
:10253000950687E060E040E00E94950680E062E05A
:1025400041E00E94950681E062E041E00E9495062C
:1025500082E062E041E00E94950685E062E041E0B1
:102560000E9495060E94AB080E940E0A0E94020A71
:102570001F910895809151069091520660E070E09D
:1025800040E050E020E079CA6091AA017091AB016F
:1025900080E090E00E94890320E030E04AEF53E4BD
:1025A0000E94120220E030E040E85AE30E9412024A
:1025B0000E94480070E080E090E00E94890389D189
:1025C0000E9448006093AE012091AC01261720F4D0
:1025D00081E00E940A0A02C00E94060A8FE090E091
:1025E0007ADDD2CF6091B30170E080E090E020917D
:1025F000B0013091B10140E050E0F3D00E94890376
:1026000020E030E040E85AE30E9412020E944800B5
:102610006093B4012091B201621738F081E00E940A
:10262000FE0981E08093BF0104C01092BF010E94A7
:10263000FA098FE090E04FDDD5CF8091510690915F
:10264000520660E070E045E050E020E058D981306B
:1026500009F590914A068091B501981749F40E94B6
:102660001B089093B1018093B0018091AF010CC021
:102670008091AF01981751F40E941B089093AB0111
:102680008093AA018091B50180934A0680914A0601
:102690000E9412088AE090E01EDDCFCFCF92DF9239
:1026A000EF92FF920F931F93DF93CF9300D000D050
:1026B000CDB7DEB719821A821B821C8210E07E0120
:1026C0000894E11CF11C85E0C82ED12CCC0EDD1E37
:1026D00001E00E944B08882371F1F701E10FF11D21
:1026E00080831F5F143039F5F701A6EBB1E09081CC
:1026F0008C91981731F431961196EC15FD05B9F7C8
:102700001EC01092BC018091BA0181508093BA0121
:10271000882311F40093BD0149DE84E690E0DBDC00
:102720008091BA01882321F48091BB018093BA0182
:102730001092BC0110E084E190E0CDDCCACF0093A0
:10274000BC010093BE01E8CFAF92BF92CF92DF925F
:10275000EF92FF920F938091B50180934A06D3DEEA
:1027600081E060E07ADA90935206809351068DE121
:1027700093E160E070E044E650E020E030E008E003
:10278000EE24FF24CC24DD24AA24BB24F6DC82EF33
:1027900092E160E070E048E750E020E030E004E0E3
:1027A000ECDC84EC92E160E070E044E650E020E094
:1027B00030E002E0E2DC8BE792E160E070E044E6CA
:1027C00050E020E030E007E0D8DC8EE493E160E008
:1027D00070E044E650E020E030E003E0CEDCBDDD18
:1027E000FFCF629FD001739FF001829FE00DF11D2A
:1027F000649FE00DF11D929FF00D839FF00D749F7B
:10280000F00D659FF00D9927729FB00DE11DF91F26
:10281000639FB00DE11DF91FBD01CF011124089583
:10282000A1E21A2EAA1BBB1BFD010DC0AA1FBB1FD4
:10283000EE1FFF1FA217B307E407F50720F0A21B46
:10284000B30BE40BF50B661F771F881F991F1A94B3
:1028500069F760957095809590959B01AC01BD01DD
:10286000CF0108952F923F924F925F926F927F9285
:102870008F929F92AF92BF92CF92DF92EF92FF9290
:102880000F931F93CF93DF93CDB7DEB7CA1BDB0B3C
:102890000FB6F894DEBF0FBECDBF09942A883988E1
:1028A00048885F846E847D848C849B84AA84B984E8
:1028B000C884DF80EE80FD800C811B81AA81B981F4
:1028C000CE0FD11D0FB6F894DEBF0FBECDBFED0108
:1028D000089550D0E0F09E37D8F09639B8F49E387D
:1028E00048F4672F782F8827985FF9CF86957795DA
:1028F000679593959539D0F3B62FB1706B0F711D15
:10290000811D20F4879577956795939502C01CC02B
:102910004CC0882371F4772321F09850872B762FB1
:1029200007C0662311F499270DC09051862B70E0E3
:1029300060E02AF09A95660F771F881FDAF7880FF4
:102940009695879597F908959F3F31F0915020F41F
:10295000879577956795B795880F911D969587957B
:1029600097F9089557FD9058440F551F59F05F3F50
:1029700071F04795880F97FB991F61F09F3F79F0A1
:1029800087950895121613061406551FF2CF469523
:10299000F1DF08C0161617061806991FF1CF8695A5
:1029A0007105610508940895E894BB276627772789
:1029B000CB0197F90895FB01DC0102C001900D9253
:1029C00041505040D8F70895DC0101C06D9341504B
:1029D0005040E0F70895FB01DC014150504048F0C1
:1029E00001900D920020C9F701C01D924150504046
:0829F000E0F70895F894FFCF11
:1029F80049444C4500443A20004F70656E2000431E
:102A08006C6F736500464952452020004E6F464959
:102A18005245003752414D5928302900414D414E09
:102A28002800292000543A200043002020002000DC
:102A3800000000000000000000010202030303037D
:102A48000404040404040404050505050505050536
:102A58000505050505050505060606060606060616
:102A680006060606060606060606060606060606FE
:102A780006060606060606060707070707070707E6
:102A880007070707070707070707070707070707CE
:102A980007070707070707070707070707070707BE
:102AA80007070707070707070707070707070707AE
:102AB8000707070707070707080808080808080896
:102AC800080808080808080808080808080808087E
:102AD800080808080808080808080808080808086E
:102AE800080808080808080808080808080808085E
:102AF800080808080808080808080808080808084E
:102B0800080808080808080808080808080808083D
:102B1800080808080808080808080808080808082D
:102B2800080808080808080808080808080808081D
:102B38000808080808080808FFFF0000289600078A
:102B48000000326400003132333403030000000017
:102B580037343143383532303936333D2F2A2D2B2F
:00000001FF
